{
  "contractName": "AnalystContract",
  "abi": [
    {
      "constant": true,
      "inputs": [
        {
          "internalType": "address",
          "name": "",
          "type": "address"
        }
      ],
      "name": "AnalystMapping",
      "outputs": [
        {
          "internalType": "string",
          "name": "username",
          "type": "string"
        },
        {
          "internalType": "string",
          "name": "email",
          "type": "string"
        }
      ],
      "payable": false,
      "stateMutability": "view",
      "type": "function"
    },
    {
      "constant": false,
      "inputs": [
        {
          "internalType": "address",
          "name": "_Analystaddr",
          "type": "address"
        },
        {
          "internalType": "string",
          "name": "name",
          "type": "string"
        },
        {
          "internalType": "string",
          "name": "email",
          "type": "string"
        }
      ],
      "name": "registerAnalyst",
      "outputs": [],
      "payable": false,
      "stateMutability": "nonpayable",
      "type": "function"
    },
    {
      "constant": true,
      "inputs": [
        {
          "internalType": "address",
          "name": "_Analystaddr",
          "type": "address"
        }
      ],
      "name": "getAnalyst",
      "outputs": [
        {
          "components": [
            {
              "internalType": "string",
              "name": "username",
              "type": "string"
            },
            {
              "internalType": "string",
              "name": "email",
              "type": "string"
            }
          ],
          "internalType": "struct AnalystContract.AnalystStruct",
          "name": "_AnalystStruct",
          "type": "tuple"
        }
      ],
      "payable": false,
      "stateMutability": "view",
      "type": "function"
    }
  ],
  "bytecode": "0x608060405234801561001057600080fd5b5061088c806100206000396000f3fe608060405234801561001057600080fd5b50600436106100415760003560e01c8063b698b53414610046578063b80a964e14610062578063d08d690c14610092575b600080fd5b610060600480360361005b9190810190610599565b6100c3565b005b61007c60048036036100779190810190610570565b610158565b6040516100899190610705565b60405180910390f35b6100ac60048036036100a79190810190610570565b6102f4565b6040516100ba9291906106ce565b60405180910390f35b6040518060400160405280838152602001828152506000808573ffffffffffffffffffffffffffffffffffffffff1673ffffffffffffffffffffffffffffffffffffffff1681526020019081526020016000206000820151816000019080519060200190610132929190610448565b50602082015181600101908051906020019061014f929190610448565b50905050505050565b6101606104c8565b6000808373ffffffffffffffffffffffffffffffffffffffff1673ffffffffffffffffffffffffffffffffffffffff168152602001908152602001600020604051806040016040529081600082018054600181600116156101000203166002900480601f0160208091040260200160405190810160405280929190818152602001828054600181600116156101000203166002900480156102425780601f1061021757610100808354040283529160200191610242565b820191906000526020600020905b81548152906001019060200180831161022557829003601f168201915b50505050508152602001600182018054600181600116156101000203166002900480601f0160208091040260200160405190810160405280929190818152602001828054600181600116156101000203166002900480156102e45780601f106102b9576101008083540402835291602001916102e4565b820191906000526020600020905b8154815290600101906020018083116102c757829003601f168201915b5050505050815250509050919050565b6000602052806000526040600020600091509050806000018054600181600116156101000203166002900480601f0160208091040260200160405190810160405280929190818152602001828054600181600116156101000203166002900480156103a05780601f10610375576101008083540402835291602001916103a0565b820191906000526020600020905b81548152906001019060200180831161038357829003601f168201915b505050505090806001018054600181600116156101000203166002900480601f01602080910402602001604051908101604052809291908181526020018280546001816001161561010002031660029004801561043e5780601f106104135761010080835404028352916020019161043e565b820191906000526020600020905b81548152906001019060200180831161042157829003601f168201915b5050505050905082565b828054600181600116156101000203166002900490600052602060002090601f016020900481019282601f1061048957805160ff19168380011785556104b7565b828001600101855582156104b7579182015b828111156104b657825182559160200191906001019061049b565b5b5090506104c491906104e2565b5090565b604051806040016040528060608152602001606081525090565b61050491905b808211156105005760008160009055506001016104e8565b5090565b90565b60008135905061051681610832565b92915050565b600082601f83011261052d57600080fd5b813561054061053b82610754565b610727565b9150808252602083016020830185838301111561055c57600080fd5b6105678382846107df565b50505092915050565b60006020828403121561058257600080fd5b600061059084828501610507565b91505092915050565b6000806000606084860312156105ae57600080fd5b60006105bc86828701610507565b935050602084013567ffffffffffffffff8111156105d957600080fd5b6105e58682870161051c565b925050604084013567ffffffffffffffff81111561060257600080fd5b61060e8682870161051c565b9150509250925092565b600061062382610780565b61062d818561078b565b935061063d8185602086016107ee565b61064681610821565b840191505092915050565b600061065c82610780565b610666818561079c565b93506106768185602086016107ee565b61067f81610821565b840191505092915050565b600060408301600083015184820360008601526106a78282610618565b915050602083015184820360208601526106c18282610618565b9150508091505092915050565b600060408201905081810360008301526106e88185610651565b905081810360208301526106fc8184610651565b90509392505050565b6000602082019050818103600083015261071f818461068a565b905092915050565b6000604051905081810181811067ffffffffffffffff8211171561074a57600080fd5b8060405250919050565b600067ffffffffffffffff82111561076b57600080fd5b601f19601f8301169050602081019050919050565b600081519050919050565b600082825260208201905092915050565b600082825260208201905092915050565b60006107b8826107bf565b9050919050565b600073ffffffffffffffffffffffffffffffffffffffff82169050919050565b82818337600083830152505050565b60005b8381101561080c5780820151818401526020810190506107f1565b8381111561081b576000848401525b50505050565b6000601f19601f8301169050919050565b61083b816107ad565b811461084657600080fd5b5056fea365627a7a723158203247074c7fdc253d1426cc042947e1ef7b846f43a82ad4e763080fe33ef1d68a6c6578706572696d656e74616cf564736f6c63430005100040",
  "source": "pragma solidity >=0.4.21;\r\npragma experimental ABIEncoderV2;\r\n\r\ncontract AnalystContract{\r\n\r\n    struct AnalystStruct {\r\n      string username;\r\n      string email;\r\n    }\r\n\r\n    mapping (address => AnalystStruct) public AnalystMapping;\r\n\r\n    function registerAnalyst(address _Analystaddr, string memory name, string memory email) public \r\n    {\r\n        AnalystMapping[_Analystaddr]=AnalystStruct(name,email);\r\n    }\r\n\r\n    function getAnalyst(address _Analystaddr) public view returns (AnalystStruct memory _AnalystStruct) {\r\n        return AnalystMapping[_Analystaddr];\r\n    }\r\n\r\n}",
  "sourcePath": "D:\\Projects\\Blockchain\\TARP Project\\E-Waste Manager\\contracts\\AnalystContract.sol",
  "compiler": {
    "name": "solc",
    "version": "0.5.16+commit.9c3226ce.Emscripten.clang"
  },
  "schemaVersion": "3.4.4",
  "updatedAt": "2022-04-13T09:21:16.446Z",
  "networkType": "ethereum",
  "devdoc": {
    "methods": {}
  },
  "userdoc": {
    "methods": {}
  }
}