{
  "contractName": "CenterContract",
  "abi": [
    {
      "inputs": [],
      "payable": false,
      "stateMutability": "nonpayable",
      "type": "constructor"
    },
    {
      "constant": true,
      "inputs": [
        {
          "internalType": "uint256",
          "name": "number",
          "type": "uint256"
        }
      ],
      "name": "IntToString",
      "outputs": [
        {
          "internalType": "string",
          "name": "",
          "type": "string"
        }
      ],
      "payable": false,
      "stateMutability": "pure",
      "type": "function"
    },
    {
      "constant": true,
      "inputs": [
        {
          "internalType": "string",
          "name": "",
          "type": "string"
        }
      ],
      "name": "centerDetailsMap",
      "outputs": [
        {
          "internalType": "string",
          "name": "centername",
          "type": "string"
        },
        {
          "internalType": "string",
          "name": "centerID",
          "type": "string"
        },
        {
          "internalType": "string",
          "name": "areaCode",
          "type": "string"
        },
        {
          "internalType": "string",
          "name": "phone",
          "type": "string"
        },
        {
          "internalType": "string",
          "name": "email",
          "type": "string"
        },
        {
          "internalType": "string",
          "name": "Caddress",
          "type": "string"
        }
      ],
      "payable": false,
      "stateMutability": "view",
      "type": "function"
    },
    {
      "constant": true,
      "inputs": [
        {
          "internalType": "address",
          "name": "",
          "type": "address"
        }
      ],
      "name": "centerIdMap",
      "outputs": [
        {
          "internalType": "string",
          "name": "",
          "type": "string"
        }
      ],
      "payable": false,
      "stateMutability": "view",
      "type": "function"
    },
    {
      "constant": true,
      "inputs": [
        {
          "internalType": "string",
          "name": "a",
          "type": "string"
        },
        {
          "internalType": "string",
          "name": "b",
          "type": "string"
        }
      ],
      "name": "concatenate",
      "outputs": [
        {
          "internalType": "string",
          "name": "",
          "type": "string"
        }
      ],
      "payable": false,
      "stateMutability": "pure",
      "type": "function"
    },
    {
      "constant": false,
      "inputs": [
        {
          "internalType": "address",
          "name": "_cmpaddr",
          "type": "address"
        },
        {
          "internalType": "string",
          "name": "cname",
          "type": "string"
        },
        {
          "internalType": "string",
          "name": "email",
          "type": "string"
        },
        {
          "internalType": "string",
          "name": "phone",
          "type": "string"
        },
        {
          "internalType": "string",
          "name": "Caddress",
          "type": "string"
        },
        {
          "internalType": "string",
          "name": "area_code",
          "type": "string"
        }
      ],
      "name": "registerUser",
      "outputs": [],
      "payable": false,
      "stateMutability": "nonpayable",
      "type": "function"
    },
    {
      "constant": true,
      "inputs": [
        {
          "internalType": "address",
          "name": "_usraddr",
          "type": "address"
        }
      ],
      "name": "getCenterID",
      "outputs": [
        {
          "internalType": "string",
          "name": "_userID",
          "type": "string"
        }
      ],
      "payable": false,
      "stateMutability": "view",
      "type": "function"
    },
    {
      "constant": true,
      "inputs": [
        {
          "internalType": "string",
          "name": "CenterID",
          "type": "string"
        }
      ],
      "name": "getCenter",
      "outputs": [
        {
          "components": [
            {
              "internalType": "string",
              "name": "centername",
              "type": "string"
            },
            {
              "internalType": "string",
              "name": "centerID",
              "type": "string"
            },
            {
              "internalType": "string",
              "name": "areaCode",
              "type": "string"
            },
            {
              "internalType": "string",
              "name": "phone",
              "type": "string"
            },
            {
              "internalType": "string",
              "name": "email",
              "type": "string"
            },
            {
              "internalType": "string",
              "name": "Caddress",
              "type": "string"
            }
          ],
          "internalType": "struct CenterContract.centerStruct",
          "name": "_centerStruct",
          "type": "tuple"
        }
      ],
      "payable": false,
      "stateMutability": "view",
      "type": "function"
    }
  ],
  "bytecode": "0x608060405234801561001057600080fd5b50600060028190555061173f806100286000396000f3fe608060405234801561001057600080fd5b506004361061007d5760003560e01c80636a7423101161005b5780636a742310146101035780636b9d4a99146101335780636fd7798a14610163578063f8aa4403146101935761007d565b80630c58532c14610082578063266001d3146100b757806335075ff0146100e7575b600080fd5b61009c60048036036100979190810190611161565b6101c3565b6040516100ae969594939291906114ca565b60405180910390f35b6100d160048036036100cc91908101906111e3565b6105a5565b6040516100de91906114a8565b60405180910390f35b61010160048036036100fc9190810190611060565b6105d1565b005b61011d600480360361011891908101906111a2565b61078e565b60405161012a9190611555565b60405180910390f35b61014d6004803603610148919081019061124f565b610b92565b60405161015a91906114a8565b60405180910390f35b61017d60048036036101789190810190611037565b610c7a565b60405161018a9190611486565b60405180910390f35b6101ad60048036036101a89190810190611037565b610d2a565b6040516101ba91906114a8565b60405180910390f35b600181805160208101820180518482526020830160208501208183528095505050505050600091509050806000018054600181600116156101000203166002900480601f0160208091040260200160405190810160405280929190818152602001828054600181600116156101000203166002900480156102855780601f1061025a57610100808354040283529160200191610285565b820191906000526020600020905b81548152906001019060200180831161026857829003601f168201915b505050505090806001018054600181600116156101000203166002900480601f0160208091040260200160405190810160405280929190818152602001828054600181600116156101000203166002900480156103235780601f106102f857610100808354040283529160200191610323565b820191906000526020600020905b81548152906001019060200180831161030657829003601f168201915b505050505090806002018054600181600116156101000203166002900480601f0160208091040260200160405190810160405280929190818152602001828054600181600116156101000203166002900480156103c15780601f10610396576101008083540402835291602001916103c1565b820191906000526020600020905b8154815290600101906020018083116103a457829003601f168201915b505050505090806003018054600181600116156101000203166002900480601f01602080910402602001604051908101604052809291908181526020018280546001816001161561010002031660029004801561045f5780601f106104345761010080835404028352916020019161045f565b820191906000526020600020905b81548152906001019060200180831161044257829003601f168201915b505050505090806004018054600181600116156101000203166002900480601f0160208091040260200160405190810160405280929190818152602001828054600181600116156101000203166002900480156104fd5780601f106104d2576101008083540402835291602001916104fd565b820191906000526020600020905b8154815290600101906020018083116104e057829003601f168201915b505050505090806005018054600181600116156101000203166002900480601f01602080910402602001604051908101604052809291908181526020018280546001816001161561010002031660029004801561059b5780601f106105705761010080835404028352916020019161059b565b820191906000526020600020905b81548152906001019060200180831161057e57829003601f168201915b5050505050905086565b606082826040516020016105ba929190611457565b604051602081830303815290604052905092915050565b60026000815480929190600101919050555060606040518060400160405280600181526020017f5500000000000000000000000000000000000000000000000000000000000000815250905060606106338261062e600254610b92565b6105a5565b9050806000808a73ffffffffffffffffffffffffffffffffffffffff1673ffffffffffffffffffffffffffffffffffffffff1681526020019081526020016000209080519060200190610687929190610e0a565b506040518060c00160405280888152602001828152602001878152602001868152602001858152602001848152506001826040516106c59190611440565b908152602001604051809103902060008201518160000190805190602001906106ef929190610e8a565b50602082015181600101908051906020019061070c929190610e8a565b506040820151816002019080519060200190610729929190610e8a565b506060820151816003019080519060200190610746929190610e8a565b506080820151816004019080519060200190610763929190610e8a565b5060a0820151816005019080519060200190610780929190610e8a565b509050505050505050505050565b610796610f0a565b6001826040516107a69190611440565b90815260200160405180910390206040518060c0016040529081600082018054600181600116156101000203166002900480601f0160208091040260200160405190810160405280929190818152602001828054600181600116156101000203166002900480156108585780601f1061082d57610100808354040283529160200191610858565b820191906000526020600020905b81548152906001019060200180831161083b57829003601f168201915b50505050508152602001600182018054600181600116156101000203166002900480601f0160208091040260200160405190810160405280929190818152602001828054600181600116156101000203166002900480156108fa5780601f106108cf576101008083540402835291602001916108fa565b820191906000526020600020905b8154815290600101906020018083116108dd57829003601f168201915b50505050508152602001600282018054600181600116156101000203166002900480601f01602080910402602001604051908101604052809291908181526020018280546001816001161561010002031660029004801561099c5780601f106109715761010080835404028352916020019161099c565b820191906000526020600020905b81548152906001019060200180831161097f57829003601f168201915b50505050508152602001600382018054600181600116156101000203166002900480601f016020809104026020016040519081016040528092919081815260200182805460018160011615610100020316600290048015610a3e5780601f10610a1357610100808354040283529160200191610a3e565b820191906000526020600020905b815481529060010190602001808311610a2157829003601f168201915b50505050508152602001600482018054600181600116156101000203166002900480601f016020809104026020016040519081016040528092919081815260200182805460018160011615610100020316600290048015610ae05780601f10610ab557610100808354040283529160200191610ae0565b820191906000526020600020905b815481529060010190602001808311610ac357829003601f168201915b50505050508152602001600582018054600181600116156101000203166002900480601f016020809104026020016040519081016040528092919081815260200182805460018160011615610100020316600290048015610b825780601f10610b5757610100808354040283529160200191610b82565b820191906000526020600020905b815481529060010190602001808311610b6557829003601f168201915b5050505050815250509050919050565b606060008260001b9050606060206040519080825280601f01601f191660200182016040528015610bd25781602001600182028038833980820191505090505b50905060008090505b6020811015610c6f5760008160080260020a8460001c0260001b9050600060f81b817effffffffffffffffffffffffffffffffffffffffffffffffffffffffffffff191614610c615780838381518110610c3157fe5b60200101907effffffffffffffffffffffffffffffffffffffffffffffffffffffffffffff1916908160001a9053505b508080600101915050610bdb565b508092505050919050565b60006020528060005260406000206000915090508054600181600116156101000203166002900480601f016020809104026020016040519081016040528092919081815260200182805460018160011615610100020316600290048015610d225780601f10610cf757610100808354040283529160200191610d22565b820191906000526020600020905b815481529060010190602001808311610d0557829003601f168201915b505050505081565b60606000808373ffffffffffffffffffffffffffffffffffffffff1673ffffffffffffffffffffffffffffffffffffffff1681526020019081526020016000208054600181600116156101000203166002900480601f016020809104026020016040519081016040528092919081815260200182805460018160011615610100020316600290048015610dfe5780601f10610dd357610100808354040283529160200191610dfe565b820191906000526020600020905b815481529060010190602001808311610de157829003601f168201915b50505050509050919050565b828054600181600116156101000203166002900490600052602060002090601f016020900481019282601f10610e4b57805160ff1916838001178555610e79565b82800160010185558215610e79579182015b82811115610e78578251825591602001919060010190610e5d565b5b509050610e869190610f40565b5090565b828054600181600116156101000203166002900490600052602060002090601f016020900481019282601f10610ecb57805160ff1916838001178555610ef9565b82800160010185558215610ef9579182015b82811115610ef8578251825591602001919060010190610edd565b5b509050610f069190610f40565b5090565b6040518060c001604052806060815260200160608152602001606081526020016060815260200160608152602001606081525090565b610f6291905b80821115610f5e576000816000905550600101610f46565b5090565b90565b600081359050610f74816116ce565b92915050565b600082601f830112610f8b57600080fd5b8135610f9e610f99826115a4565b611577565b91508082526020830160208301858383011115610fba57600080fd5b610fc583828461167b565b50505092915050565b600082601f830112610fdf57600080fd5b8135610ff2610fed826115d0565b611577565b9150808252602083016020830185838301111561100e57600080fd5b61101983828461167b565b50505092915050565b600081359050611031816116e5565b92915050565b60006020828403121561104957600080fd5b600061105784828501610f65565b91505092915050565b60008060008060008060c0878903121561107957600080fd5b600061108789828a01610f65565b965050602087013567ffffffffffffffff8111156110a457600080fd5b6110b089828a01610fce565b955050604087013567ffffffffffffffff8111156110cd57600080fd5b6110d989828a01610fce565b945050606087013567ffffffffffffffff8111156110f657600080fd5b61110289828a01610fce565b935050608087013567ffffffffffffffff81111561111f57600080fd5b61112b89828a01610fce565b92505060a087013567ffffffffffffffff81111561114857600080fd5b61115489828a01610fce565b9150509295509295509295565b60006020828403121561117357600080fd5b600082013567ffffffffffffffff81111561118d57600080fd5b61119984828501610f7a565b91505092915050565b6000602082840312156111b457600080fd5b600082013567ffffffffffffffff8111156111ce57600080fd5b6111da84828501610fce565b91505092915050565b600080604083850312156111f657600080fd5b600083013567ffffffffffffffff81111561121057600080fd5b61121c85828601610fce565b925050602083013567ffffffffffffffff81111561123957600080fd5b61124585828601610fce565b9150509250929050565b60006020828403121561126157600080fd5b600061126f84828501611022565b91505092915050565b600061128382611607565b61128d8185611623565b935061129d81856020860161168a565b6112a6816116bd565b840191505092915050565b60006112bc82611607565b6112c68185611634565b93506112d681856020860161168a565b80840191505092915050565b60006112ed826115fc565b6112f78185611612565b935061130781856020860161168a565b611310816116bd565b840191505092915050565b6000611326826115fc565b6113308185611623565b935061134081856020860161168a565b611349816116bd565b840191505092915050565b6000611361600183611634565b91507f20000000000000000000000000000000000000000000000000000000000000006000830152600182019050919050565b600060c08301600083015184820360008601526113b182826112e2565b915050602083015184820360208601526113cb82826112e2565b915050604083015184820360408601526113e582826112e2565b915050606083015184820360608601526113ff82826112e2565b9150506080830151848203608086015261141982826112e2565b91505060a083015184820360a086015261143382826112e2565b9150508091505092915050565b600061144c82846112b1565b915081905092915050565b600061146382856112b1565b915061146e82611354565b915061147a82846112b1565b91508190509392505050565b600060208201905081810360008301526114a0818461131b565b905092915050565b600060208201905081810360008301526114c28184611278565b905092915050565b600060c08201905081810360008301526114e4818961131b565b905081810360208301526114f8818861131b565b9050818103604083015261150c818761131b565b90508181036060830152611520818661131b565b90508181036080830152611534818561131b565b905081810360a0830152611548818461131b565b9050979650505050505050565b6000602082019050818103600083015261156f8184611394565b905092915050565b6000604051905081810181811067ffffffffffffffff8211171561159a57600080fd5b8060405250919050565b600067ffffffffffffffff8211156115bb57600080fd5b601f19601f8301169050602081019050919050565b600067ffffffffffffffff8211156115e757600080fd5b601f19601f8301169050602081019050919050565b600081519050919050565b600081519050919050565b600082825260208201905092915050565b600082825260208201905092915050565b600081905092915050565b600061164a82611651565b9050919050565b600073ffffffffffffffffffffffffffffffffffffffff82169050919050565b6000819050919050565b82818337600083830152505050565b60005b838110156116a857808201518184015260208101905061168d565b838111156116b7576000848401525b50505050565b6000601f19601f8301169050919050565b6116d78161163f565b81146116e257600080fd5b50565b6116ee81611671565b81146116f957600080fd5b5056fea365627a7a72315820816c6543dd763d56e9c489e904fd1e95670ce0820f57297bc848b62616a614ee6c6578706572696d656e74616cf564736f6c63430005100040",
  "source": "// SPDX-License-Identifier: MIT\r\npragma solidity >=0.4.21;\r\npragma experimental ABIEncoderV2;\r\nimport './Operations.sol';\r\n\r\ncontract CenterContract is Operations{\r\n\r\n    struct centerStruct {\r\n      string centername;\r\n      string centerID;\r\n      string areaCode;\r\n      string phone;\r\n      string email;\r\n      string Caddress;\r\n    }\r\n    mapping (address => string) public centerIdMap;\r\n    mapping (string => centerStruct) public centerDetailsMap;\r\n\r\n    uint Centercount;\r\n\r\n    constructor() public {\r\n        Centercount=0;\r\n    }\r\n\r\n    function registerUser(address _cmpaddr, string memory cname, string memory email, string memory phone,\r\n                                            string memory Caddress, string memory area_code ) public \r\n    {\r\n        Centercount++;\r\n        //Convert int to string \r\n        string memory H=\"U\";\r\n        string memory CenterID=concatenate(H,IntToString(Centercount));\r\n\r\n        centerIdMap[_cmpaddr]=CenterID;\r\n        centerDetailsMap[CenterID]=centerStruct(cname,CenterID,email,phone,Caddress,area_code);\r\n    }\r\n\r\n    function getCenterID(address _usraddr) public view returns (string memory _userID) {\r\n        return centerIdMap[_usraddr];\r\n    }\r\n\r\n    function getCenter(string memory CenterID) public view returns (centerStruct memory _centerStruct) {\r\n        return centerDetailsMap[CenterID];\r\n    }\r\n\r\n}",
  "sourcePath": "D:\\Projects\\Blockchain\\TARP Project\\E-Waste Manager\\contracts\\CenterContract.sol",
  "compiler": {
    "name": "solc",
    "version": "0.5.16+commit.9c3226ce.Emscripten.clang"
  },
  "schemaVersion": "3.4.4",
  "updatedAt": "2022-04-13T09:21:16.442Z",
  "networkType": "ethereum",
  "devdoc": {
    "methods": {}
  },
  "userdoc": {
    "methods": {}
  }
}