{
  "contractName": "LoginContract",
  "abi": [
    {
      "constant": true,
      "inputs": [
        {
          "internalType": "address",
          "name": "",
          "type": "address"
        }
      ],
      "name": "userMap",
      "outputs": [
        {
          "internalType": "string",
          "name": "username",
          "type": "string"
        },
        {
          "internalType": "string",
          "name": "email",
          "type": "string"
        },
        {
          "internalType": "string",
          "name": "phone",
          "type": "string"
        },
        {
          "internalType": "string",
          "name": "Haddress",
          "type": "string"
        },
        {
          "internalType": "string",
          "name": "Usertype",
          "type": "string"
        }
      ],
      "payable": false,
      "stateMutability": "view",
      "type": "function"
    },
    {
      "constant": false,
      "inputs": [
        {
          "internalType": "address",
          "name": "_usraddr",
          "type": "address"
        },
        {
          "internalType": "string",
          "name": "name",
          "type": "string"
        },
        {
          "internalType": "string",
          "name": "email",
          "type": "string"
        },
        {
          "internalType": "string",
          "name": "phone",
          "type": "string"
        },
        {
          "internalType": "string",
          "name": "Haddress",
          "type": "string"
        },
        {
          "internalType": "string",
          "name": "Usertype",
          "type": "string"
        }
      ],
      "name": "registerUser",
      "outputs": [],
      "payable": false,
      "stateMutability": "nonpayable",
      "type": "function"
    },
    {
      "constant": true,
      "inputs": [
        {
          "internalType": "address",
          "name": "_usraddr",
          "type": "address"
        }
      ],
      "name": "getUser",
      "outputs": [
        {
          "components": [
            {
              "internalType": "string",
              "name": "username",
              "type": "string"
            },
            {
              "internalType": "string",
              "name": "email",
              "type": "string"
            },
            {
              "internalType": "string",
              "name": "phone",
              "type": "string"
            },
            {
              "internalType": "string",
              "name": "Haddress",
              "type": "string"
            },
            {
              "internalType": "string",
              "name": "Usertype",
              "type": "string"
            }
          ],
          "internalType": "struct LoginContract.userStruct",
          "name": "_userStruct",
          "type": "tuple"
        }
      ],
      "payable": false,
      "stateMutability": "view",
      "type": "function"
    }
  ],
  "bytecode": "0x608060405234801561001057600080fd5b50610ddf806100206000396000f3fe608060405234801561001057600080fd5b50600436106100415760003560e01c80632bcc23f81461004657806335075ff01461007a5780636f77926b14610096575b600080fd5b610060600480360361005b91908101906109b4565b6100c6565b604051610071959493929190610be2565b60405180910390f35b610094600480360361008f91908101906109dd565b6103f4565b005b6100b060048036036100ab91908101906109b4565b6104f5565b6040516100bd9190610c58565b60405180910390f35b6000602052806000526040600020600091509050806000018054600181600116156101000203166002900480601f0160208091040260200160405190810160405280929190818152602001828054600181600116156101000203166002900480156101725780601f1061014757610100808354040283529160200191610172565b820191906000526020600020905b81548152906001019060200180831161015557829003601f168201915b505050505090806001018054600181600116156101000203166002900480601f0160208091040260200160405190810160405280929190818152602001828054600181600116156101000203166002900480156102105780601f106101e557610100808354040283529160200191610210565b820191906000526020600020905b8154815290600101906020018083116101f357829003601f168201915b505050505090806002018054600181600116156101000203166002900480601f0160208091040260200160405190810160405280929190818152602001828054600181600116156101000203166002900480156102ae5780601f10610283576101008083540402835291602001916102ae565b820191906000526020600020905b81548152906001019060200180831161029157829003601f168201915b505050505090806003018054600181600116156101000203166002900480601f01602080910402602001604051908101604052809291908181526020018280546001816001161561010002031660029004801561034c5780601f106103215761010080835404028352916020019161034c565b820191906000526020600020905b81548152906001019060200180831161032f57829003601f168201915b505050505090806004018054600181600116156101000203166002900480601f0160208091040260200160405190810160405280929190818152602001828054600181600116156101000203166002900480156103ea5780601f106103bf576101008083540402835291602001916103ea565b820191906000526020600020905b8154815290600101906020018083116103cd57829003601f168201915b5050505050905085565b6040518060a00160405280868152602001858152602001848152602001838152602001828152506000808873ffffffffffffffffffffffffffffffffffffffff1673ffffffffffffffffffffffffffffffffffffffff1681526020019081526020016000206000820151816000019080519060200190610475929190610877565b506020820151816001019080519060200190610492929190610877565b5060408201518160020190805190602001906104af929190610877565b5060608201518160030190805190602001906104cc929190610877565b5060808201518160040190805190602001906104e9929190610877565b50905050505050505050565b6104fd6108f7565b6000808373ffffffffffffffffffffffffffffffffffffffff1673ffffffffffffffffffffffffffffffffffffffff1681526020019081526020016000206040518060a0016040529081600082018054600181600116156101000203166002900480601f0160208091040260200160405190810160405280929190818152602001828054600181600116156101000203166002900480156105df5780601f106105b4576101008083540402835291602001916105df565b820191906000526020600020905b8154815290600101906020018083116105c257829003601f168201915b50505050508152602001600182018054600181600116156101000203166002900480601f0160208091040260200160405190810160405280929190818152602001828054600181600116156101000203166002900480156106815780601f1061065657610100808354040283529160200191610681565b820191906000526020600020905b81548152906001019060200180831161066457829003601f168201915b50505050508152602001600282018054600181600116156101000203166002900480601f0160208091040260200160405190810160405280929190818152602001828054600181600116156101000203166002900480156107235780601f106106f857610100808354040283529160200191610723565b820191906000526020600020905b81548152906001019060200180831161070657829003601f168201915b50505050508152602001600382018054600181600116156101000203166002900480601f0160208091040260200160405190810160405280929190818152602001828054600181600116156101000203166002900480156107c55780601f1061079a576101008083540402835291602001916107c5565b820191906000526020600020905b8154815290600101906020018083116107a857829003601f168201915b50505050508152602001600482018054600181600116156101000203166002900480601f0160208091040260200160405190810160405280929190818152602001828054600181600116156101000203166002900480156108675780601f1061083c57610100808354040283529160200191610867565b820191906000526020600020905b81548152906001019060200180831161084a57829003601f168201915b5050505050815250509050919050565b828054600181600116156101000203166002900490600052602060002090601f016020900481019282601f106108b857805160ff19168380011785556108e6565b828001600101855582156108e6579182015b828111156108e55782518255916020019190600101906108ca565b5b5090506108f39190610926565b5090565b6040518060a0016040528060608152602001606081526020016060815260200160608152602001606081525090565b61094891905b8082111561094457600081600090555060010161092c565b5090565b90565b60008135905061095a81610d85565b92915050565b600082601f83011261097157600080fd5b813561098461097f82610ca7565b610c7a565b915080825260208301602083018583830111156109a057600080fd5b6109ab838284610d32565b50505092915050565b6000602082840312156109c657600080fd5b60006109d48482850161094b565b91505092915050565b60008060008060008060c087890312156109f657600080fd5b6000610a0489828a0161094b565b965050602087013567ffffffffffffffff811115610a2157600080fd5b610a2d89828a01610960565b955050604087013567ffffffffffffffff811115610a4a57600080fd5b610a5689828a01610960565b945050606087013567ffffffffffffffff811115610a7357600080fd5b610a7f89828a01610960565b935050608087013567ffffffffffffffff811115610a9c57600080fd5b610aa889828a01610960565b92505060a087013567ffffffffffffffff811115610ac557600080fd5b610ad189828a01610960565b9150509295509295509295565b6000610ae982610cd3565b610af38185610cde565b9350610b03818560208601610d41565b610b0c81610d74565b840191505092915050565b6000610b2282610cd3565b610b2c8185610cef565b9350610b3c818560208601610d41565b610b4581610d74565b840191505092915050565b600060a0830160008301518482036000860152610b6d8282610ade565b91505060208301518482036020860152610b878282610ade565b91505060408301518482036040860152610ba18282610ade565b91505060608301518482036060860152610bbb8282610ade565b91505060808301518482036080860152610bd58282610ade565b9150508091505092915050565b600060a0820190508181036000830152610bfc8188610b17565b90508181036020830152610c108187610b17565b90508181036040830152610c248186610b17565b90508181036060830152610c388185610b17565b90508181036080830152610c4c8184610b17565b90509695505050505050565b60006020820190508181036000830152610c728184610b50565b905092915050565b6000604051905081810181811067ffffffffffffffff82111715610c9d57600080fd5b8060405250919050565b600067ffffffffffffffff821115610cbe57600080fd5b601f19601f8301169050602081019050919050565b600081519050919050565b600082825260208201905092915050565b600082825260208201905092915050565b6000610d0b82610d12565b9050919050565b600073ffffffffffffffffffffffffffffffffffffffff82169050919050565b82818337600083830152505050565b60005b83811015610d5f578082015181840152602081019050610d44565b83811115610d6e576000848401525b50505050565b6000601f19601f8301169050919050565b610d8e81610d00565b8114610d9957600080fd5b5056fea365627a7a7231582016a66c2603c835879be5948fd142c3fd801e63efeff9bc5abea07af8f56bc1ad6c6578706572696d656e74616cf564736f6c63430005100040",
  "source": "// SPDX-License-Identifier: MIT\r\npragma solidity >=0.4.21;\r\npragma experimental ABIEncoderV2;\r\n\r\ncontract LoginContract {\r\n\r\n    struct userStruct {\r\n      string username;\r\n      string email;\r\n      string phone;\r\n      string Haddress;\r\n      string Usertype;\r\n    }\r\n\r\n    mapping (address => userStruct) public userMap;\r\n\r\n    function registerUser(address _usraddr, string memory name, string memory email, string memory phone,\r\n                                            string memory Haddress, string memory Usertype ) public \r\n    {\r\n        userMap[_usraddr]=userStruct(name,email,phone,Haddress,Usertype);\r\n    }\r\n\r\n    function getUser(address _usraddr) public view returns (userStruct memory _userStruct) {\r\n        return userMap[_usraddr];\r\n    }\r\n\r\n}",
  "sourcePath": "D:\\Projects\\Blockchain\\TARP Project\\E-Waste Manager\\contracts\\LoginContract.sol",
  "compiler": {
    "name": "solc",
    "version": "0.5.16+commit.9c3226ce.Emscripten.clang"
  },
  "schemaVersion": "3.4.4",
  "updatedAt": "2022-04-13T09:21:16.435Z",
  "networkType": "ethereum",
  "devdoc": {
    "methods": {}
  },
  "userdoc": {
    "methods": {}
  }
}