{
  "contractName": "Operations",
  "abi": [
    {
      "constant": true,
      "inputs": [
        {
          "internalType": "uint256",
          "name": "number",
          "type": "uint256"
        }
      ],
      "name": "IntToString",
      "outputs": [
        {
          "internalType": "string",
          "name": "",
          "type": "string"
        }
      ],
      "payable": false,
      "stateMutability": "pure",
      "type": "function"
    },
    {
      "constant": true,
      "inputs": [
        {
          "internalType": "string",
          "name": "a",
          "type": "string"
        },
        {
          "internalType": "string",
          "name": "b",
          "type": "string"
        }
      ],
      "name": "concatenate",
      "outputs": [
        {
          "internalType": "string",
          "name": "",
          "type": "string"
        }
      ],
      "payable": false,
      "stateMutability": "pure",
      "type": "function"
    }
  ],
  "bytecode": "0x608060405234801561001057600080fd5b506104df806100206000396000f3fe608060405234801561001057600080fd5b50600436106100365760003560e01c8063266001d31461003b5780636b9d4a991461006b575b600080fd5b61005560048036036100509190810190610218565b61009b565b6040516100629190610386565b60405180910390f35b61008560048036036100809190810190610284565b6100c7565b6040516100929190610386565b60405180910390f35b606082826040516020016100b0929190610357565b604051602081830303815290604052905092915050565b606060008260001b9050606060206040519080825280601f01601f1916602001820160405280156101075781602001600182028038833980820191505090505b50905060008090505b60208110156101a45760008160080260020a8460001c0260001b9050600060f81b817effffffffffffffffffffffffffffffffffffffffffffffffffffffffffffff191614610196578083838151811061016657fe5b60200101907effffffffffffffffffffffffffffffffffffffffffffffffffffffffffffff1916908160001a9053505b508080600101915050610110565b508092505050919050565b600082601f8301126101c057600080fd5b81356101d36101ce826103d5565b6103a8565b915080825260208301602083018583830111156101ef57600080fd5b6101fa838284610432565b50505092915050565b60008135905061021281610485565b92915050565b6000806040838503121561022b57600080fd5b600083013567ffffffffffffffff81111561024557600080fd5b610251858286016101af565b925050602083013567ffffffffffffffff81111561026e57600080fd5b61027a858286016101af565b9150509250929050565b60006020828403121561029657600080fd5b60006102a484828501610203565b91505092915050565b60006102b882610401565b6102c2818561040c565b93506102d2818560208601610441565b6102db81610474565b840191505092915050565b60006102f182610401565b6102fb818561041d565b935061030b818560208601610441565b80840191505092915050565b600061032460018361041d565b91507f20000000000000000000000000000000000000000000000000000000000000006000830152600182019050919050565b600061036382856102e6565b915061036e82610317565b915061037a82846102e6565b91508190509392505050565b600060208201905081810360008301526103a081846102ad565b905092915050565b6000604051905081810181811067ffffffffffffffff821117156103cb57600080fd5b8060405250919050565b600067ffffffffffffffff8211156103ec57600080fd5b601f19601f8301169050602081019050919050565b600081519050919050565b600082825260208201905092915050565b600081905092915050565b6000819050919050565b82818337600083830152505050565b60005b8381101561045f578082015181840152602081019050610444565b8381111561046e576000848401525b50505050565b6000601f19601f8301169050919050565b61048e81610428565b811461049957600080fd5b5056fea365627a7a7231582046cce2f1e801754b9813f2e7af64c6cf27028cb337885a076151353832047f586c6578706572696d656e74616cf564736f6c63430005100040",
  "source": "// SPDX-License-Identifier: MIT\r\npragma solidity >=0.4.21;\r\npragma experimental ABIEncoderV2;\r\n\r\ncontract Operations {\r\n\r\n    function IntToString (uint number) public pure returns (string memory) {\r\n        bytes32 data = bytes32(number);\r\n        bytes memory bytesString = new bytes(32);\r\n        for (uint j=0; j<32; j++) {\r\n            byte char = byte(bytes32(uint(data) * 2 ** (8 * j)));\r\n            if (char != 0) {\r\n                bytesString[j] = char;\r\n            }\r\n        }\r\n        return string(bytesString);\r\n    }\r\n    \r\n    function concatenate(string memory a,string memory b) public pure returns (string memory){\r\n        return string(abi.encodePacked(a,' ',b));\r\n    }\r\n\r\n}",
  "sourcePath": "D:\\Projects\\Blockchain\\TARP Project\\E-Waste Manager\\contracts\\Operations.sol",
  "compiler": {
    "name": "solc",
    "version": "0.5.16+commit.9c3226ce.Emscripten.clang"
  },
  "schemaVersion": "3.4.4",
  "updatedAt": "2022-04-13T09:21:06.843Z",
  "devdoc": {
    "methods": {}
  },
  "userdoc": {
    "methods": {}
  }
}