{
  "contractName": "SellingDismantlingBuying",
  "abi": [
    {
      "constant": true,
      "inputs": [
        {
          "internalType": "string",
          "name": "",
          "type": "string"
        },
        {
          "internalType": "uint256",
          "name": "",
          "type": "uint256"
        }
      ],
      "name": "BillDetailsMap",
      "outputs": [
        {
          "internalType": "string",
          "name": "BillID",
          "type": "string"
        },
        {
          "internalType": "string",
          "name": "CompanyID",
          "type": "string"
        },
        {
          "internalType": "string",
          "name": "CenterID",
          "type": "string"
        },
        {
          "internalType": "string",
          "name": "ScrapID",
          "type": "string"
        },
        {
          "internalType": "uint256",
          "name": "qty",
          "type": "uint256"
        },
        {
          "internalType": "string",
          "name": "final_cost",
          "type": "string"
        }
      ],
      "payable": false,
      "stateMutability": "view",
      "type": "function"
    },
    {
      "constant": true,
      "inputs": [
        {
          "internalType": "uint256",
          "name": "number",
          "type": "uint256"
        }
      ],
      "name": "IntToString",
      "outputs": [
        {
          "internalType": "string",
          "name": "",
          "type": "string"
        }
      ],
      "payable": false,
      "stateMutability": "pure",
      "type": "function"
    },
    {
      "constant": true,
      "inputs": [
        {
          "internalType": "string",
          "name": "",
          "type": "string"
        }
      ],
      "name": "ProductDetailsMap",
      "outputs": [
        {
          "internalType": "string",
          "name": "productname",
          "type": "string"
        },
        {
          "internalType": "string",
          "name": "productID",
          "type": "string"
        },
        {
          "internalType": "string",
          "name": "Ptype",
          "type": "string"
        },
        {
          "internalType": "string",
          "name": "details",
          "type": "string"
        },
        {
          "internalType": "string",
          "name": "sellingPrice",
          "type": "string"
        },
        {
          "internalType": "string",
          "name": "productImg",
          "type": "string"
        },
        {
          "internalType": "string",
          "name": "collectionCenter",
          "type": "string"
        },
        {
          "internalType": "uint256",
          "name": "uploaddate",
          "type": "uint256"
        }
      ],
      "payable": false,
      "stateMutability": "view",
      "type": "function"
    },
    {
      "constant": true,
      "inputs": [
        {
          "internalType": "string",
          "name": "",
          "type": "string"
        }
      ],
      "name": "companyScrapsDetailsMap",
      "outputs": [
        {
          "internalType": "string",
          "name": "ScrapName",
          "type": "string"
        },
        {
          "internalType": "string",
          "name": "ScrapType",
          "type": "string"
        },
        {
          "internalType": "string",
          "name": "ScrapImage",
          "type": "string"
        },
        {
          "internalType": "string",
          "name": "Details",
          "type": "string"
        },
        {
          "internalType": "string",
          "name": "QtyType",
          "type": "string"
        },
        {
          "internalType": "uint256",
          "name": "currentQty",
          "type": "uint256"
        },
        {
          "internalType": "string",
          "name": "costper",
          "type": "string"
        },
        {
          "internalType": "string",
          "name": "CompanyID",
          "type": "string"
        }
      ],
      "payable": false,
      "stateMutability": "view",
      "type": "function"
    },
    {
      "constant": true,
      "inputs": [
        {
          "internalType": "string",
          "name": "",
          "type": "string"
        },
        {
          "internalType": "uint256",
          "name": "",
          "type": "uint256"
        }
      ],
      "name": "companyScrapsMap",
      "outputs": [
        {
          "internalType": "string",
          "name": "",
          "type": "string"
        }
      ],
      "payable": false,
      "stateMutability": "view",
      "type": "function"
    },
    {
      "constant": true,
      "inputs": [
        {
          "internalType": "string",
          "name": "a",
          "type": "string"
        },
        {
          "internalType": "string",
          "name": "b",
          "type": "string"
        }
      ],
      "name": "concatenate",
      "outputs": [
        {
          "internalType": "string",
          "name": "",
          "type": "string"
        }
      ],
      "payable": false,
      "stateMutability": "pure",
      "type": "function"
    },
    {
      "constant": true,
      "inputs": [
        {
          "internalType": "string",
          "name": "",
          "type": "string"
        },
        {
          "internalType": "uint256",
          "name": "",
          "type": "uint256"
        }
      ],
      "name": "productScrapsMap",
      "outputs": [
        {
          "internalType": "string",
          "name": "ScrapID",
          "type": "string"
        },
        {
          "internalType": "uint256",
          "name": "qtyObtained",
          "type": "uint256"
        }
      ],
      "payable": false,
      "stateMutability": "view",
      "type": "function"
    },
    {
      "constant": true,
      "inputs": [
        {
          "internalType": "string",
          "name": "",
          "type": "string"
        },
        {
          "internalType": "uint256",
          "name": "",
          "type": "uint256"
        }
      ],
      "name": "userProductMap",
      "outputs": [
        {
          "internalType": "string",
          "name": "",
          "type": "string"
        }
      ],
      "payable": false,
      "stateMutability": "view",
      "type": "function"
    },
    {
      "constant": false,
      "inputs": [
        {
          "internalType": "string",
          "name": "name",
          "type": "string"
        },
        {
          "internalType": "string",
          "name": "ProdType",
          "type": "string"
        },
        {
          "internalType": "string",
          "name": "details",
          "type": "string"
        },
        {
          "internalType": "string",
          "name": "price",
          "type": "string"
        },
        {
          "internalType": "string",
          "name": "productImg",
          "type": "string"
        },
        {
          "internalType": "string",
          "name": "userID",
          "type": "string"
        },
        {
          "internalType": "uint256",
          "name": "date",
          "type": "uint256"
        }
      ],
      "name": "addProduct",
      "outputs": [],
      "payable": false,
      "stateMutability": "nonpayable",
      "type": "function"
    },
    {
      "constant": false,
      "inputs": [
        {
          "internalType": "string",
          "name": "CompanyID",
          "type": "string"
        },
        {
          "internalType": "string",
          "name": "ProdID",
          "type": "string"
        }
      ],
      "name": "setCompanyCentertoProduct",
      "outputs": [],
      "payable": false,
      "stateMutability": "nonpayable",
      "type": "function"
    },
    {
      "constant": true,
      "inputs": [
        {
          "internalType": "string",
          "name": "ProductID",
          "type": "string"
        }
      ],
      "name": "getProductDetails",
      "outputs": [
        {
          "components": [
            {
              "internalType": "string",
              "name": "productname",
              "type": "string"
            },
            {
              "internalType": "string",
              "name": "productID",
              "type": "string"
            },
            {
              "internalType": "string",
              "name": "Ptype",
              "type": "string"
            },
            {
              "internalType": "string",
              "name": "details",
              "type": "string"
            },
            {
              "internalType": "string",
              "name": "sellingPrice",
              "type": "string"
            },
            {
              "internalType": "string",
              "name": "productImg",
              "type": "string"
            },
            {
              "internalType": "string",
              "name": "collectionCenter",
              "type": "string"
            },
            {
              "internalType": "uint256",
              "name": "uploaddate",
              "type": "uint256"
            }
          ],
          "internalType": "struct SellingDismantlingBuying.OldProductStruct",
          "name": "_OldProductStruct",
          "type": "tuple"
        }
      ],
      "payable": false,
      "stateMutability": "view",
      "type": "function"
    },
    {
      "constant": false,
      "inputs": [
        {
          "internalType": "string",
          "name": "SID",
          "type": "string"
        },
        {
          "internalType": "uint256",
          "name": "qty",
          "type": "uint256"
        }
      ],
      "name": "updateScrapQty",
      "outputs": [],
      "payable": false,
      "stateMutability": "nonpayable",
      "type": "function"
    },
    {
      "constant": false,
      "inputs": [
        {
          "internalType": "string",
          "name": "ProductID",
          "type": "string"
        },
        {
          "internalType": "string",
          "name": "ScrapID",
          "type": "string"
        },
        {
          "internalType": "uint256",
          "name": "qty",
          "type": "uint256"
        }
      ],
      "name": "newCompanyScrap",
      "outputs": [],
      "payable": false,
      "stateMutability": "nonpayable",
      "type": "function"
    },
    {
      "constant": false,
      "inputs": [
        {
          "internalType": "string",
          "name": "CompanyID",
          "type": "string"
        },
        {
          "internalType": "string",
          "name": "ScrapName",
          "type": "string"
        },
        {
          "internalType": "string",
          "name": "ScrapType",
          "type": "string"
        },
        {
          "internalType": "string",
          "name": "ScrapImage",
          "type": "string"
        },
        {
          "internalType": "string",
          "name": "Details",
          "type": "string"
        },
        {
          "internalType": "string",
          "name": "QtyType",
          "type": "string"
        },
        {
          "internalType": "string",
          "name": "sellingcost",
          "type": "string"
        }
      ],
      "name": "newCompanyScrap",
      "outputs": [],
      "payable": false,
      "stateMutability": "nonpayable",
      "type": "function"
    },
    {
      "constant": false,
      "inputs": [
        {
          "internalType": "string",
          "name": "BillID",
          "type": "string"
        },
        {
          "internalType": "string",
          "name": "CompanyID",
          "type": "string"
        },
        {
          "internalType": "string",
          "name": "CenterID",
          "type": "string"
        },
        {
          "internalType": "string",
          "name": "ScrapID",
          "type": "string"
        },
        {
          "internalType": "uint256",
          "name": "qty",
          "type": "uint256"
        },
        {
          "internalType": "string",
          "name": "final_cost",
          "type": "string"
        }
      ],
      "name": "newBusinessBill",
      "outputs": [],
      "payable": false,
      "stateMutability": "nonpayable",
      "type": "function"
    }
  ],
  "bytecode": "0x608060405234801561001057600080fd5b50612cff806100206000396000f3fe608060405234801561001057600080fd5b50600436106100f55760003560e01c80634909b521116100975780637d7251ff116100665780637d7251ff146102c25780637d7411ef146102f7578063cc92a78e1461032e578063e289935a1461034a576100f5565b80634909b5211461020e578063603c14e9146102455780636b9d4a99146102615780636d04172e14610291576100f5565b80631a802fae116100d35780631a802fae1461018a578063266001d3146101a65780632858a679146101d65780632e5d8959146101f2576100f5565b8063060c5d9d146100fa57806311471ea91461012a578063198c59b01461015a575b600080fd5b610114600480360361010f9190810190612631565b610366565b6040516101219190612908565b60405180910390f35b610144600480360361013f9190810190612631565b610442565b6040516101519190612908565b60405180910390f35b610174600480360361016f919081019061213c565b61051e565b6040516101819190612b5e565b60405180910390f35b6101a4600480360361019f919081019061217d565b6109cf565b005b6101c060048036036101bb919081019061217d565b610a09565b6040516101cd919061292a565b60405180910390f35b6101f060048036036101eb919081019061245d565b610a35565b005b61020c6004803603610207919081019061232f565b610b5e565b005b610228600480360361022391908101906120fb565b610daf565b60405161023c9897969594939291906129fb565b60405180910390f35b61025f600480360361025a91908101906125dd565b611235565b005b61027b60048036036102769190810190612685565b611268565b604051610288919061292a565b60405180910390f35b6102ab60048036036102a69190810190612631565b611350565b6040516102b9929190612b2e565b60405180910390f35b6102dc60048036036102d79190810190612631565b61143c565b6040516102ee96959493929190612aaa565b60405180910390f35b610311600480360361030c91908101906120fb565b6117a0565b60405161032598979695949392919061294c565b60405180910390f35b6103486004803603610343919081019061255e565b611c26565b005b610364600480360361035f91908101906121e9565b611cbd565b005b600082805160208101820180518482526020830160208501208183528095505050505050818154811061039557fe5b90600052602060002001600091509150508054600181600116156101000203166002900480601f01602080910402602001604051908101604052809291908181526020018280546001816001161561010002031660029004801561043a5780601f1061040f5761010080835404028352916020019161043a565b820191906000526020600020905b81548152906001019060200180831161041d57829003601f168201915b505050505081565b600282805160208101820180518482526020830160208501208183528095505050505050818154811061047157fe5b90600052602060002001600091509150508054600181600116156101000203166002900480601f0160208091040260200160405190810160405280929190818152602001828054600181600116156101000203166002900480156105165780601f106104eb57610100808354040283529160200191610516565b820191906000526020600020905b8154815290600101906020018083116104f957829003601f168201915b505050505081565b610526611ed4565b60018260405161053691906128c2565b908152602001604051809103902060405180610100016040529081600082018054600181600116156101000203166002900480601f0160208091040260200160405190810160405280929190818152602001828054600181600116156101000203166002900480156105e95780601f106105be576101008083540402835291602001916105e9565b820191906000526020600020905b8154815290600101906020018083116105cc57829003601f168201915b50505050508152602001600182018054600181600116156101000203166002900480601f01602080910402602001604051908101604052809291908181526020018280546001816001161561010002031660029004801561068b5780601f106106605761010080835404028352916020019161068b565b820191906000526020600020905b81548152906001019060200180831161066e57829003601f168201915b50505050508152602001600282018054600181600116156101000203166002900480601f01602080910402602001604051908101604052809291908181526020018280546001816001161561010002031660029004801561072d5780601f106107025761010080835404028352916020019161072d565b820191906000526020600020905b81548152906001019060200180831161071057829003601f168201915b50505050508152602001600382018054600181600116156101000203166002900480601f0160208091040260200160405190810160405280929190818152602001828054600181600116156101000203166002900480156107cf5780601f106107a4576101008083540402835291602001916107cf565b820191906000526020600020905b8154815290600101906020018083116107b257829003601f168201915b50505050508152602001600482018054600181600116156101000203166002900480601f0160208091040260200160405190810160405280929190818152602001828054600181600116156101000203166002900480156108715780601f1061084657610100808354040283529160200191610871565b820191906000526020600020905b81548152906001019060200180831161085457829003601f168201915b50505050508152602001600582018054600181600116156101000203166002900480601f0160208091040260200160405190810160405280929190818152602001828054600181600116156101000203166002900480156109135780601f106108e857610100808354040283529160200191610913565b820191906000526020600020905b8154815290600101906020018083116108f657829003601f168201915b50505050508152602001600682018054600181600116156101000203166002900480601f0160208091040260200160405190810160405280929190818152602001828054600181600116156101000203166002900480156109b55780601f1061098a576101008083540402835291602001916109b5565b820191906000526020600020905b81548152906001019060200180831161099857829003601f168201915b505050505081526020016007820154815250509050919050565b816001826040516109e091906128c2565b90815260200160405180910390206006019080519060200190610a04929190611f19565b505050565b60608282604051602001610a1e9291906128d9565b604051602081830303815290604052905092915050565b600585604051610a4591906128c2565b90815260200160405180910390206040518060c0016040528088815260200187815260200187815260200185815260200184815260200183815250908060018154018082558091505090600182039060005260206000209060060201600090919290919091506000820151816000019080519060200190610ac7929190611f99565b506020820151816001019080519060200190610ae4929190611f99565b506040820151816002019080519060200190610b01929190611f99565b506060820151816003019080519060200190610b1e929190611f99565b506080820151816004015560a0820151816005019080519060200190610b45929190611f99565b50505050610b568383600003611235565b505050505050565b60606040518060400160405280600281526020017f2d5000000000000000000000000000000000000000000000000000000000000081525090506060610bcd82610bc8600087604051610bb191906128c2565b908152602001604051809103902080549050611268565b610a09565b90506060610bdb8583610a09565b905060606040518060400160405280600281526020017f4e410000000000000000000000000000000000000000000000000000000000008152509050600086604051610c2791906128c2565b9081526020016040518091039020829080600181540180825580915050906001820390600052602060002001600090919290919091509080519060200190610c70929190611f19565b50506040518061010001604052808c81526020018381526020018b81526020018a815260200189815260200188815260200182815260200186815250600183604051610cbc91906128c2565b90815260200160405180910390206000820151816000019080519060200190610ce6929190611f99565b506020820151816001019080519060200190610d03929190611f99565b506040820151816002019080519060200190610d20929190611f99565b506060820151816003019080519060200190610d3d929190611f99565b506080820151816004019080519060200190610d5a929190611f99565b5060a0820151816005019080519060200190610d77929190611f99565b5060c0820151816006019080519060200190610d94929190611f99565b5060e082015181600701559050505050505050505050505050565b600381805160208101820180518482526020830160208501208183528095505050505050600091509050806000018054600181600116156101000203166002900480601f016020809104026020016040519081016040528092919081815260200182805460018160011615610100020316600290048015610e715780601f10610e4657610100808354040283529160200191610e71565b820191906000526020600020905b815481529060010190602001808311610e5457829003601f168201915b505050505090806001018054600181600116156101000203166002900480601f016020809104026020016040519081016040528092919081815260200182805460018160011615610100020316600290048015610f0f5780601f10610ee457610100808354040283529160200191610f0f565b820191906000526020600020905b815481529060010190602001808311610ef257829003601f168201915b505050505090806002018054600181600116156101000203166002900480601f016020809104026020016040519081016040528092919081815260200182805460018160011615610100020316600290048015610fad5780601f10610f8257610100808354040283529160200191610fad565b820191906000526020600020905b815481529060010190602001808311610f9057829003601f168201915b505050505090806003018054600181600116156101000203166002900480601f01602080910402602001604051908101604052809291908181526020018280546001816001161561010002031660029004801561104b5780601f106110205761010080835404028352916020019161104b565b820191906000526020600020905b81548152906001019060200180831161102e57829003601f168201915b505050505090806004018054600181600116156101000203166002900480601f0160208091040260200160405190810160405280929190818152602001828054600181600116156101000203166002900480156110e95780601f106110be576101008083540402835291602001916110e9565b820191906000526020600020905b8154815290600101906020018083116110cc57829003601f168201915b505050505090806005015490806006018054600181600116156101000203166002900480601f01602080910402602001604051908101604052809291908181526020018280546001816001161561010002031660029004801561118d5780601f106111625761010080835404028352916020019161118d565b820191906000526020600020905b81548152906001019060200180831161117057829003601f168201915b505050505090806007018054600181600116156101000203166002900480601f01602080910402602001604051908101604052809291908181526020018280546001816001161561010002031660029004801561122b5780601f106112005761010080835404028352916020019161122b565b820191906000526020600020905b81548152906001019060200180831161120e57829003601f168201915b5050505050905088565b8060038360405161124691906128c2565b9081526020016040518091039020600501600082825401925050819055505050565b606060008260001b9050606060206040519080825280601f01601f1916602001820160405280156112a85781602001600182028038833980820191505090505b50905060008090505b60208110156113455760008160080260020a8460001c0260001b9050600060f81b817effffffffffffffffffffffffffffffffffffffffffffffffffffffffffffff191614611337578083838151811061130757fe5b60200101907effffffffffffffffffffffffffffffffffffffffffffffffffffffffffffff1916908160001a9053505b5080806001019150506112b1565b508092505050919050565b600482805160208101820180518482526020830160208501208183528095505050505050818154811061137f57fe5b906000526020600020906002020160009150915050806000018054600181600116156101000203166002900480601f01602080910402602001604051908101604052809291908181526020018280546001816001161561010002031660029004801561142c5780601f106114015761010080835404028352916020019161142c565b820191906000526020600020905b81548152906001019060200180831161140f57829003601f168201915b5050505050908060010154905082565b600582805160208101820180518482526020830160208501208183528095505050505050818154811061146b57fe5b906000526020600020906006020160009150915050806000018054600181600116156101000203166002900480601f0160208091040260200160405190810160405280929190818152602001828054600181600116156101000203166002900480156115185780601f106114ed57610100808354040283529160200191611518565b820191906000526020600020905b8154815290600101906020018083116114fb57829003601f168201915b505050505090806001018054600181600116156101000203166002900480601f0160208091040260200160405190810160405280929190818152602001828054600181600116156101000203166002900480156115b65780601f1061158b576101008083540402835291602001916115b6565b820191906000526020600020905b81548152906001019060200180831161159957829003601f168201915b505050505090806002018054600181600116156101000203166002900480601f0160208091040260200160405190810160405280929190818152602001828054600181600116156101000203166002900480156116545780601f1061162957610100808354040283529160200191611654565b820191906000526020600020905b81548152906001019060200180831161163757829003601f168201915b505050505090806003018054600181600116156101000203166002900480601f0160208091040260200160405190810160405280929190818152602001828054600181600116156101000203166002900480156116f25780601f106116c7576101008083540402835291602001916116f2565b820191906000526020600020905b8154815290600101906020018083116116d557829003601f168201915b505050505090806004015490806005018054600181600116156101000203166002900480601f0160208091040260200160405190810160405280929190818152602001828054600181600116156101000203166002900480156117965780601f1061176b57610100808354040283529160200191611796565b820191906000526020600020905b81548152906001019060200180831161177957829003601f168201915b5050505050905086565b600181805160208101820180518482526020830160208501208183528095505050505050600091509050806000018054600181600116156101000203166002900480601f0160208091040260200160405190810160405280929190818152602001828054600181600116156101000203166002900480156118625780601f1061183757610100808354040283529160200191611862565b820191906000526020600020905b81548152906001019060200180831161184557829003601f168201915b505050505090806001018054600181600116156101000203166002900480601f0160208091040260200160405190810160405280929190818152602001828054600181600116156101000203166002900480156119005780601f106118d557610100808354040283529160200191611900565b820191906000526020600020905b8154815290600101906020018083116118e357829003601f168201915b505050505090806002018054600181600116156101000203166002900480601f01602080910402602001604051908101604052809291908181526020018280546001816001161561010002031660029004801561199e5780601f106119735761010080835404028352916020019161199e565b820191906000526020600020905b81548152906001019060200180831161198157829003601f168201915b505050505090806003018054600181600116156101000203166002900480601f016020809104026020016040519081016040528092919081815260200182805460018160011615610100020316600290048015611a3c5780601f10611a1157610100808354040283529160200191611a3c565b820191906000526020600020905b815481529060010190602001808311611a1f57829003601f168201915b505050505090806004018054600181600116156101000203166002900480601f016020809104026020016040519081016040528092919081815260200182805460018160011615610100020316600290048015611ada5780601f10611aaf57610100808354040283529160200191611ada565b820191906000526020600020905b815481529060010190602001808311611abd57829003601f168201915b505050505090806005018054600181600116156101000203166002900480601f016020809104026020016040519081016040528092919081815260200182805460018160011615610100020316600290048015611b785780601f10611b4d57610100808354040283529160200191611b78565b820191906000526020600020905b815481529060010190602001808311611b5b57829003601f168201915b505050505090806006018054600181600116156101000203166002900480601f016020809104026020016040519081016040528092919081815260200182805460018160011615610100020316600290048015611c165780601f10611beb57610100808354040283529160200191611c16565b820191906000526020600020905b815481529060010190602001808311611bf957829003601f168201915b5050505050908060070154905088565b600483604051611c3691906128c2565b9081526020016040518091039020604051806040016040528084815260200183815250908060018154018082558091505090600182039060005260206000209060020201600090919290919091506000820151816000019080519060200190611ca0929190611f99565b5060208201518160010155505050611cb88282611235565b505050565b60606040518060400160405280600281526020017f2d5300000000000000000000000000000000000000000000000000000000000081525090506060611d2c82611d2760028c604051611d1091906128c2565b908152602001604051809103902080549050611268565b610a09565b90506060611d3a8a83610a09565b905060028a604051611d4c91906128c2565b9081526020016040518091039020819080600181540180825580915050906001820390600052602060002001600090919290919091509080519060200190611d95929190611f19565b50506040518061010001604052808a8152602001898152602001888152602001878152602001868152602001600081526020018581526020018b815250600382604051611de291906128c2565b90815260200160405180910390206000820151816000019080519060200190611e0c929190611f99565b506020820151816001019080519060200190611e29929190611f99565b506040820151816002019080519060200190611e46929190611f99565b506060820151816003019080519060200190611e63929190611f99565b506080820151816004019080519060200190611e80929190611f99565b5060a0820151816005015560c0820151816006019080519060200190611ea7929190611f99565b5060e0820151816007019080519060200190611ec4929190611f99565b5090505050505050505050505050565b60405180610100016040528060608152602001606081526020016060815260200160608152602001606081526020016060815260200160608152602001600081525090565b828054600181600116156101000203166002900490600052602060002090601f016020900481019282601f10611f5a57805160ff1916838001178555611f88565b82800160010185558215611f88579182015b82811115611f87578251825591602001919060010190611f6c565b5b509050611f959190612019565b5090565b828054600181600116156101000203166002900490600052602060002090601f016020900481019282601f10611fda57805160ff1916838001178555612008565b82800160010185558215612008579182015b82811115612007578251825591602001919060010190611fec565b5b5090506120159190612019565b5090565b61203b91905b8082111561203757600081600090555060010161201f565b5090565b90565b600082601f83011261204f57600080fd5b813561206261205d82612bad565b612b80565b9150808252602083016020830185838301111561207e57600080fd5b612089838284612c52565b50505092915050565b600082601f8301126120a357600080fd5b81356120b66120b182612bd9565b612b80565b915080825260208301602083018583830111156120d257600080fd5b6120dd838284612c52565b50505092915050565b6000813590506120f581612ca5565b92915050565b60006020828403121561210d57600080fd5b600082013567ffffffffffffffff81111561212757600080fd5b6121338482850161203e565b91505092915050565b60006020828403121561214e57600080fd5b600082013567ffffffffffffffff81111561216857600080fd5b61217484828501612092565b91505092915050565b6000806040838503121561219057600080fd5b600083013567ffffffffffffffff8111156121aa57600080fd5b6121b685828601612092565b925050602083013567ffffffffffffffff8111156121d357600080fd5b6121df85828601612092565b9150509250929050565b600080600080600080600060e0888a03121561220457600080fd5b600088013567ffffffffffffffff81111561221e57600080fd5b61222a8a828b01612092565b975050602088013567ffffffffffffffff81111561224757600080fd5b6122538a828b01612092565b965050604088013567ffffffffffffffff81111561227057600080fd5b61227c8a828b01612092565b955050606088013567ffffffffffffffff81111561229957600080fd5b6122a58a828b01612092565b945050608088013567ffffffffffffffff8111156122c257600080fd5b6122ce8a828b01612092565b93505060a088013567ffffffffffffffff8111156122eb57600080fd5b6122f78a828b01612092565b92505060c088013567ffffffffffffffff81111561231457600080fd5b6123208a828b01612092565b91505092959891949750929550565b600080600080600080600060e0888a03121561234a57600080fd5b600088013567ffffffffffffffff81111561236457600080fd5b6123708a828b01612092565b975050602088013567ffffffffffffffff81111561238d57600080fd5b6123998a828b01612092565b965050604088013567ffffffffffffffff8111156123b657600080fd5b6123c28a828b01612092565b955050606088013567ffffffffffffffff8111156123df57600080fd5b6123eb8a828b01612092565b945050608088013567ffffffffffffffff81111561240857600080fd5b6124148a828b01612092565b93505060a088013567ffffffffffffffff81111561243157600080fd5b61243d8a828b01612092565b92505060c061244e8a828b016120e6565b91505092959891949750929550565b60008060008060008060c0878903121561247657600080fd5b600087013567ffffffffffffffff81111561249057600080fd5b61249c89828a01612092565b965050602087013567ffffffffffffffff8111156124b957600080fd5b6124c589828a01612092565b955050604087013567ffffffffffffffff8111156124e257600080fd5b6124ee89828a01612092565b945050606087013567ffffffffffffffff81111561250b57600080fd5b61251789828a01612092565b935050608061252889828a016120e6565b92505060a087013567ffffffffffffffff81111561254557600080fd5b61255189828a01612092565b9150509295509295509295565b60008060006060848603121561257357600080fd5b600084013567ffffffffffffffff81111561258d57600080fd5b61259986828701612092565b935050602084013567ffffffffffffffff8111156125b657600080fd5b6125c286828701612092565b92505060406125d3868287016120e6565b9150509250925092565b600080604083850312156125f057600080fd5b600083013567ffffffffffffffff81111561260a57600080fd5b61261685828601612092565b9250506020612627858286016120e6565b9150509250929050565b6000806040838503121561264457600080fd5b600083013567ffffffffffffffff81111561265e57600080fd5b61266a8582860161203e565b925050602061267b858286016120e6565b9150509250929050565b60006020828403121561269757600080fd5b60006126a5848285016120e6565b91505092915050565b60006126b982612c10565b6126c38185612c2c565b93506126d3818560208601612c61565b6126dc81612c94565b840191505092915050565b60006126f282612c10565b6126fc8185612c3d565b935061270c818560208601612c61565b80840191505092915050565b600061272382612c05565b61272d8185612c1b565b935061273d818560208601612c61565b61274681612c94565b840191505092915050565b600061275c82612c05565b6127668185612c2c565b9350612776818560208601612c61565b61277f81612c94565b840191505092915050565b6000612797600183612c3d565b91507f20000000000000000000000000000000000000000000000000000000000000006000830152600182019050919050565b60006101008301600083015184820360008601526127e88282612718565b915050602083015184820360208601526128028282612718565b9150506040830151848203604086015261281c8282612718565b915050606083015184820360608601526128368282612718565b915050608083015184820360808601526128508282612718565b91505060a083015184820360a086015261286a8282612718565b91505060c083015184820360c08601526128848282612718565b91505060e083015161289960e08601826128a4565b508091505092915050565b6128ad81612c48565b82525050565b6128bc81612c48565b82525050565b60006128ce82846126e7565b915081905092915050565b60006128e582856126e7565b91506128f08261278a565b91506128fc82846126e7565b91508190509392505050565b600060208201905081810360008301526129228184612751565b905092915050565b6000602082019050818103600083015261294481846126ae565b905092915050565b6000610100820190508181036000830152612967818b612751565b9050818103602083015261297b818a612751565b9050818103604083015261298f8189612751565b905081810360608301526129a38188612751565b905081810360808301526129b78187612751565b905081810360a08301526129cb8186612751565b905081810360c08301526129df8185612751565b90506129ee60e08301846128b3565b9998505050505050505050565b6000610100820190508181036000830152612a16818b612751565b90508181036020830152612a2a818a612751565b90508181036040830152612a3e8189612751565b90508181036060830152612a528188612751565b90508181036080830152612a668187612751565b9050612a7560a08301866128b3565b81810360c0830152612a878185612751565b905081810360e0830152612a9b8184612751565b90509998505050505050505050565b600060c0820190508181036000830152612ac48189612751565b90508181036020830152612ad88188612751565b90508181036040830152612aec8187612751565b90508181036060830152612b008186612751565b9050612b0f60808301856128b3565b81810360a0830152612b218184612751565b9050979650505050505050565b60006040820190508181036000830152612b488185612751565b9050612b5760208301846128b3565b9392505050565b60006020820190508181036000830152612b7881846127ca565b905092915050565b6000604051905081810181811067ffffffffffffffff82111715612ba357600080fd5b8060405250919050565b600067ffffffffffffffff821115612bc457600080fd5b601f19601f8301169050602081019050919050565b600067ffffffffffffffff821115612bf057600080fd5b601f19601f8301169050602081019050919050565b600081519050919050565b600081519050919050565b600082825260208201905092915050565b600082825260208201905092915050565b600081905092915050565b6000819050919050565b82818337600083830152505050565b60005b83811015612c7f578082015181840152602081019050612c64565b83811115612c8e576000848401525b50505050565b6000601f19601f8301169050919050565b612cae81612c48565b8114612cb957600080fd5b5056fea365627a7a72315820188415f900f0a34bb3f4b79eb79386e32cac3b12176f63b0b4a8861d2c5e338e6c6578706572696d656e74616cf564736f6c63430005100040",
  "source": "// SPDX-License-Identifier: MIT\r\npragma solidity >=0.4.21;\r\npragma experimental ABIEncoderV2;\r\nimport './Operations.sol';\r\n\r\ncontract SellingDismantlingBuying is Operations{\r\n\r\n    //---Selling---\r\n    struct OldProductStruct {\r\n      string productname;\r\n      string productID;\r\n      string Ptype;\r\n      string details;\r\n      string sellingPrice;\r\n      string productImg;\r\n      string collectionCenter;\r\n      uint256 uploaddate;\r\n    }\r\n\r\n    mapping (string => string[]) public userProductMap;\r\n    mapping (string => OldProductStruct) public ProductDetailsMap;\r\n\r\n    function addProduct(string memory name, string memory ProdType, string memory details, \r\n                            string memory price, string memory productImg, string memory userID, uint256 date) public \r\n    {\r\n        //Convert int to string \r\n        string memory H=\"-P\";\r\n        string memory PID=concatenate(H,IntToString(userProductMap[userID].length));\r\n        string memory ProdID=concatenate(userID,PID);\r\n\r\n        string memory CC = \"NA\";\r\n\r\n        userProductMap[userID].push(ProdID);\r\n        ProductDetailsMap[ProdID]=OldProductStruct(name,ProdID,ProdType,details,price,productImg,CC,date);\r\n    }\r\n\r\n    function setCompanyCentertoProduct(string memory CompanyID,string memory ProdID) public\r\n    {\r\n        ProductDetailsMap[ProdID].collectionCenter=CompanyID;\r\n    }\r\n\r\n    function getProductDetails(string memory ProductID) public view returns (OldProductStruct memory _OldProductStruct) {\r\n        return ProductDetailsMap[ProductID];\r\n    }\r\n\r\n    //---Dismantling---\r\n    struct CompanyScraps {\r\n      string ScrapName;\r\n      string ScrapType;\r\n      string ScrapImage;\r\n      string Details;\r\n      string QtyType;\r\n      uint currentQty;\r\n      string costper;\r\n      string CompanyID;\r\n    }\r\n\r\n    mapping (string => string[]) public companyScrapsMap;\r\n    mapping (string => CompanyScraps) public companyScrapsDetailsMap;\r\n\r\n    function newCompanyScrap(string memory CompanyID, string memory ScrapName, string memory ScrapType, string memory ScrapImage,\r\n                                        string memory Details, string memory QtyType, string memory sellingcost) public\r\n    {\r\n        string memory H=\"-S\";\r\n        string memory SID=concatenate(H,IntToString(companyScrapsMap[CompanyID].length));\r\n        string memory ScrapID=concatenate(CompanyID,SID);\r\n\r\n        companyScrapsMap[CompanyID].push(ScrapID);\r\n        companyScrapsDetailsMap[ScrapID]=CompanyScraps(ScrapName,ScrapType,ScrapImage,Details,QtyType,0,sellingcost,CompanyID);\r\n    }\r\n\r\n    function updateScrapQty(string memory SID, uint qty) public\r\n    {\r\n        companyScrapsDetailsMap[SID].currentQty+=qty;\r\n    }\r\n\r\n    struct ProductScraps\r\n    {\r\n        string ScrapID;\r\n        uint qtyObtained;\r\n    }\r\n\r\n    mapping (string => ProductScraps[]) public productScrapsMap;\r\n\r\n    function newCompanyScrap(string memory ProductID, string memory ScrapID, uint qty) public\r\n    {\r\n        productScrapsMap[ProductID].push(ProductScraps(ScrapID,qty));\r\n        updateScrapQty(ScrapID,qty);\r\n    }\r\n\r\n    //---Buying---\r\n    struct BuyBill\r\n    {\r\n        string BillID;\r\n        string CompanyID;\r\n        string CenterID;\r\n        string ScrapID;\r\n        uint qty;\r\n        string final_cost;\r\n    }\r\n\r\n    mapping (string => BuyBill[]) public BillDetailsMap;\r\n\r\n    function newBusinessBill(string memory BillID, string memory CompanyID, string memory CenterID, \r\n                                string memory ScrapID, uint qty, string memory final_cost) public\r\n    {\r\n        BillDetailsMap[CompanyID].push(BuyBill(BillID,CompanyID,CompanyID,ScrapID,qty,final_cost));\r\n        updateScrapQty(ScrapID,-qty);\r\n    }\r\n\r\n}",
  "sourcePath": "D:\\Projects\\Blockchain\\TARP Project\\E-Waste Manager\\contracts\\SellingDismantlingBuying.sol",
  "compiler": {
    "name": "solc",
    "version": "0.5.16+commit.9c3226ce.Emscripten.clang"
  },
  "schemaVersion": "3.4.4",
  "updatedAt": "2022-04-13T09:21:16.461Z",
  "networkType": "ethereum",
  "devdoc": {
    "methods": {}
  },
  "userdoc": {
    "methods": {}
  }
}