{
  "contractName": "SellingContract",
  "abi": [
    {
      "inputs": [],
      "payable": false,
      "stateMutability": "nonpayable",
      "type": "constructor"
    },
    {
      "constant": true,
      "inputs": [
        {
          "internalType": "uint256",
          "name": "number",
          "type": "uint256"
        }
      ],
      "name": "IntToString",
      "outputs": [
        {
          "internalType": "string",
          "name": "",
          "type": "string"
        }
      ],
      "payable": false,
      "stateMutability": "pure",
      "type": "function"
    },
    {
      "constant": true,
      "inputs": [
        {
          "internalType": "string",
          "name": "",
          "type": "string"
        }
      ],
      "name": "ProductDetailsMap",
      "outputs": [
        {
          "internalType": "string",
          "name": "productname",
          "type": "string"
        },
        {
          "internalType": "string",
          "name": "productID",
          "type": "string"
        },
        {
          "internalType": "string",
          "name": "Ptype",
          "type": "string"
        },
        {
          "internalType": "string",
          "name": "details",
          "type": "string"
        },
        {
          "internalType": "string",
          "name": "sellingPrice",
          "type": "string"
        },
        {
          "internalType": "string",
          "name": "productImg",
          "type": "string"
        },
        {
          "internalType": "string",
          "name": "collectionCenter",
          "type": "string"
        },
        {
          "internalType": "uint256",
          "name": "uploaddate",
          "type": "uint256"
        }
      ],
      "payable": false,
      "stateMutability": "view",
      "type": "function"
    },
    {
      "constant": true,
      "inputs": [
        {
          "internalType": "string",
          "name": "a",
          "type": "string"
        },
        {
          "internalType": "string",
          "name": "b",
          "type": "string"
        }
      ],
      "name": "concatenate",
      "outputs": [
        {
          "internalType": "string",
          "name": "",
          "type": "string"
        }
      ],
      "payable": false,
      "stateMutability": "pure",
      "type": "function"
    },
    {
      "constant": true,
      "inputs": [
        {
          "internalType": "string",
          "name": "",
          "type": "string"
        },
        {
          "internalType": "uint256",
          "name": "",
          "type": "uint256"
        }
      ],
      "name": "userProductMap",
      "outputs": [
        {
          "internalType": "string",
          "name": "",
          "type": "string"
        }
      ],
      "payable": false,
      "stateMutability": "view",
      "type": "function"
    },
    {
      "constant": false,
      "inputs": [
        {
          "internalType": "string",
          "name": "name",
          "type": "string"
        },
        {
          "internalType": "string",
          "name": "ProdType",
          "type": "string"
        },
        {
          "internalType": "string",
          "name": "details",
          "type": "string"
        },
        {
          "internalType": "string",
          "name": "price",
          "type": "string"
        },
        {
          "internalType": "string",
          "name": "productImg",
          "type": "string"
        },
        {
          "internalType": "string",
          "name": "userID",
          "type": "string"
        },
        {
          "internalType": "uint256",
          "name": "date",
          "type": "uint256"
        }
      ],
      "name": "addProduct",
      "outputs": [],
      "payable": false,
      "stateMutability": "nonpayable",
      "type": "function"
    },
    {
      "constant": false,
      "inputs": [
        {
          "internalType": "string",
          "name": "CompanyID",
          "type": "string"
        },
        {
          "internalType": "string",
          "name": "ProdID",
          "type": "string"
        }
      ],
      "name": "setCompanyCenter",
      "outputs": [],
      "payable": false,
      "stateMutability": "nonpayable",
      "type": "function"
    },
    {
      "constant": true,
      "inputs": [
        {
          "internalType": "string",
          "name": "ProductID",
          "type": "string"
        }
      ],
      "name": "getProduct",
      "outputs": [
        {
          "components": [
            {
              "internalType": "string",
              "name": "productname",
              "type": "string"
            },
            {
              "internalType": "string",
              "name": "productID",
              "type": "string"
            },
            {
              "internalType": "string",
              "name": "Ptype",
              "type": "string"
            },
            {
              "internalType": "string",
              "name": "details",
              "type": "string"
            },
            {
              "internalType": "string",
              "name": "sellingPrice",
              "type": "string"
            },
            {
              "internalType": "string",
              "name": "productImg",
              "type": "string"
            },
            {
              "internalType": "string",
              "name": "collectionCenter",
              "type": "string"
            },
            {
              "internalType": "uint256",
              "name": "uploaddate",
              "type": "uint256"
            }
          ],
          "internalType": "struct SellingContract.OldProductStruct",
          "name": "_OldProductStruct",
          "type": "tuple"
        }
      ],
      "payable": false,
      "stateMutability": "view",
      "type": "function"
    }
  ],
  "bytecode": "0x608060405234801561001057600080fd5b506000600281905550611745806100286000396000f3fe608060405234801561001057600080fd5b506004361061007d5760003560e01c806368111cce1161005b57806368111cce146100fe5780636b9d4a991461012e5780637d7411ef1461015e578063dd36bf71146101955761007d565b8063060c5d9d14610082578063266001d3146100b25780632e5d8959146100e2575b600080fd5b61009c600480360361009791908101906111da565b6101b1565b6040516100a991906114b1565b60405180910390f35b6100cc60048036036100c79190810190611040565b61028d565b6040516100d991906114d3565b60405180910390f35b6100fc60048036036100f791908101906110ac565b6102b9565b005b61011860048036036101139190810190610fff565b6103be565b60405161012591906115a4565b60405180910390f35b6101486004803603610143919081019061122e565b61086f565b60405161015591906114d3565b60405180910390f35b61017860048036036101739190810190610fbe565b610957565b60405161018c9897969594939291906114f5565b60405180910390f35b6101af60048036036101aa9190810190611040565b610ddd565b005b60008280516020810182018051848252602083016020850120818352809550505050505081815481106101e057fe5b90600052602060002001600091509150508054600181600116156101000203166002900480601f0160208091040260200160405190810160405280929190818152602001828054600181600116156101000203166002900480156102855780601f1061025a57610100808354040283529160200191610285565b820191906000526020600020905b81548152906001019060200180831161026857829003601f168201915b505050505081565b606082826040516020016102a2929190611482565b604051602081830303815290604052905092915050565b60026000815480929190600101919050555060606040518060400160405280600181526020017f50000000000000000000000000000000000000000000000000000000000000008152509050606061031b8261031660025461086f565b61028d565b905060606040518060400160405280600281526020017f4e410000000000000000000000000000000000000000000000000000000000008152509050600085604051610367919061146b565b90815260200160405180910390208290806001815401808255809150509060018203906000526020600020016000909192909190915090805190602001906103b0929190610e17565b505050505050505050505050565b6103c6610e97565b6001826040516103d6919061146b565b908152602001604051809103902060405180610100016040529081600082018054600181600116156101000203166002900480601f0160208091040260200160405190810160405280929190818152602001828054600181600116156101000203166002900480156104895780601f1061045e57610100808354040283529160200191610489565b820191906000526020600020905b81548152906001019060200180831161046c57829003601f168201915b50505050508152602001600182018054600181600116156101000203166002900480601f01602080910402602001604051908101604052809291908181526020018280546001816001161561010002031660029004801561052b5780601f106105005761010080835404028352916020019161052b565b820191906000526020600020905b81548152906001019060200180831161050e57829003601f168201915b50505050508152602001600282018054600181600116156101000203166002900480601f0160208091040260200160405190810160405280929190818152602001828054600181600116156101000203166002900480156105cd5780601f106105a2576101008083540402835291602001916105cd565b820191906000526020600020905b8154815290600101906020018083116105b057829003601f168201915b50505050508152602001600382018054600181600116156101000203166002900480601f01602080910402602001604051908101604052809291908181526020018280546001816001161561010002031660029004801561066f5780601f106106445761010080835404028352916020019161066f565b820191906000526020600020905b81548152906001019060200180831161065257829003601f168201915b50505050508152602001600482018054600181600116156101000203166002900480601f0160208091040260200160405190810160405280929190818152602001828054600181600116156101000203166002900480156107115780601f106106e657610100808354040283529160200191610711565b820191906000526020600020905b8154815290600101906020018083116106f457829003601f168201915b50505050508152602001600582018054600181600116156101000203166002900480601f0160208091040260200160405190810160405280929190818152602001828054600181600116156101000203166002900480156107b35780601f10610788576101008083540402835291602001916107b3565b820191906000526020600020905b81548152906001019060200180831161079657829003601f168201915b50505050508152602001600682018054600181600116156101000203166002900480601f0160208091040260200160405190810160405280929190818152602001828054600181600116156101000203166002900480156108555780601f1061082a57610100808354040283529160200191610855565b820191906000526020600020905b81548152906001019060200180831161083857829003601f168201915b505050505081526020016007820154815250509050919050565b606060008260001b9050606060206040519080825280601f01601f1916602001820160405280156108af5781602001600182028038833980820191505090505b50905060008090505b602081101561094c5760008160080260020a8460001c0260001b9050600060f81b817effffffffffffffffffffffffffffffffffffffffffffffffffffffffffffff19161461093e578083838151811061090e57fe5b60200101907effffffffffffffffffffffffffffffffffffffffffffffffffffffffffffff1916908160001a9053505b5080806001019150506108b8565b508092505050919050565b600181805160208101820180518482526020830160208501208183528095505050505050600091509050806000018054600181600116156101000203166002900480601f016020809104026020016040519081016040528092919081815260200182805460018160011615610100020316600290048015610a195780601f106109ee57610100808354040283529160200191610a19565b820191906000526020600020905b8154815290600101906020018083116109fc57829003601f168201915b505050505090806001018054600181600116156101000203166002900480601f016020809104026020016040519081016040528092919081815260200182805460018160011615610100020316600290048015610ab75780601f10610a8c57610100808354040283529160200191610ab7565b820191906000526020600020905b815481529060010190602001808311610a9a57829003601f168201915b505050505090806002018054600181600116156101000203166002900480601f016020809104026020016040519081016040528092919081815260200182805460018160011615610100020316600290048015610b555780601f10610b2a57610100808354040283529160200191610b55565b820191906000526020600020905b815481529060010190602001808311610b3857829003601f168201915b505050505090806003018054600181600116156101000203166002900480601f016020809104026020016040519081016040528092919081815260200182805460018160011615610100020316600290048015610bf35780601f10610bc857610100808354040283529160200191610bf3565b820191906000526020600020905b815481529060010190602001808311610bd657829003601f168201915b505050505090806004018054600181600116156101000203166002900480601f016020809104026020016040519081016040528092919081815260200182805460018160011615610100020316600290048015610c915780601f10610c6657610100808354040283529160200191610c91565b820191906000526020600020905b815481529060010190602001808311610c7457829003601f168201915b505050505090806005018054600181600116156101000203166002900480601f016020809104026020016040519081016040528092919081815260200182805460018160011615610100020316600290048015610d2f5780601f10610d0457610100808354040283529160200191610d2f565b820191906000526020600020905b815481529060010190602001808311610d1257829003601f168201915b505050505090806006018054600181600116156101000203166002900480601f016020809104026020016040519081016040528092919081815260200182805460018160011615610100020316600290048015610dcd5780601f10610da257610100808354040283529160200191610dcd565b820191906000526020600020905b815481529060010190602001808311610db057829003601f168201915b5050505050908060070154905088565b81600182604051610dee919061146b565b90815260200160405180910390206006019080519060200190610e12929190610e17565b505050565b828054600181600116156101000203166002900490600052602060002090601f016020900481019282601f10610e5857805160ff1916838001178555610e86565b82800160010185558215610e86579182015b82811115610e85578251825591602001919060010190610e6a565b5b509050610e939190610edc565b5090565b60405180610100016040528060608152602001606081526020016060815260200160608152602001606081526020016060815260200160608152602001600081525090565b610efe91905b80821115610efa576000816000905550600101610ee2565b5090565b90565b600082601f830112610f1257600080fd5b8135610f25610f20826115f3565b6115c6565b91508082526020830160208301858383011115610f4157600080fd5b610f4c838284611698565b50505092915050565b600082601f830112610f6657600080fd5b8135610f79610f748261161f565b6115c6565b91508082526020830160208301858383011115610f9557600080fd5b610fa0838284611698565b50505092915050565b600081359050610fb8816116eb565b92915050565b600060208284031215610fd057600080fd5b600082013567ffffffffffffffff811115610fea57600080fd5b610ff684828501610f01565b91505092915050565b60006020828403121561101157600080fd5b600082013567ffffffffffffffff81111561102b57600080fd5b61103784828501610f55565b91505092915050565b6000806040838503121561105357600080fd5b600083013567ffffffffffffffff81111561106d57600080fd5b61107985828601610f55565b925050602083013567ffffffffffffffff81111561109657600080fd5b6110a285828601610f55565b9150509250929050565b600080600080600080600060e0888a0312156110c757600080fd5b600088013567ffffffffffffffff8111156110e157600080fd5b6110ed8a828b01610f55565b975050602088013567ffffffffffffffff81111561110a57600080fd5b6111168a828b01610f55565b965050604088013567ffffffffffffffff81111561113357600080fd5b61113f8a828b01610f55565b955050606088013567ffffffffffffffff81111561115c57600080fd5b6111688a828b01610f55565b945050608088013567ffffffffffffffff81111561118557600080fd5b6111918a828b01610f55565b93505060a088013567ffffffffffffffff8111156111ae57600080fd5b6111ba8a828b01610f55565b92505060c06111cb8a828b01610fa9565b91505092959891949750929550565b600080604083850312156111ed57600080fd5b600083013567ffffffffffffffff81111561120757600080fd5b61121385828601610f01565b925050602061122485828601610fa9565b9150509250929050565b60006020828403121561124057600080fd5b600061124e84828501610fa9565b91505092915050565b600061126282611656565b61126c8185611672565b935061127c8185602086016116a7565b611285816116da565b840191505092915050565b600061129b82611656565b6112a58185611683565b93506112b58185602086016116a7565b80840191505092915050565b60006112cc8261164b565b6112d68185611661565b93506112e68185602086016116a7565b6112ef816116da565b840191505092915050565b60006113058261164b565b61130f8185611672565b935061131f8185602086016116a7565b611328816116da565b840191505092915050565b6000611340600183611683565b91507f20000000000000000000000000000000000000000000000000000000000000006000830152600182019050919050565b600061010083016000830151848203600086015261139182826112c1565b915050602083015184820360208601526113ab82826112c1565b915050604083015184820360408601526113c582826112c1565b915050606083015184820360608601526113df82826112c1565b915050608083015184820360808601526113f982826112c1565b91505060a083015184820360a086015261141382826112c1565b91505060c083015184820360c086015261142d82826112c1565b91505060e083015161144260e086018261144d565b508091505092915050565b6114568161168e565b82525050565b6114658161168e565b82525050565b60006114778284611290565b915081905092915050565b600061148e8285611290565b915061149982611333565b91506114a58284611290565b91508190509392505050565b600060208201905081810360008301526114cb81846112fa565b905092915050565b600060208201905081810360008301526114ed8184611257565b905092915050565b6000610100820190508181036000830152611510818b6112fa565b90508181036020830152611524818a6112fa565b9050818103604083015261153881896112fa565b9050818103606083015261154c81886112fa565b9050818103608083015261156081876112fa565b905081810360a083015261157481866112fa565b905081810360c083015261158881856112fa565b905061159760e083018461145c565b9998505050505050505050565b600060208201905081810360008301526115be8184611373565b905092915050565b6000604051905081810181811067ffffffffffffffff821117156115e957600080fd5b8060405250919050565b600067ffffffffffffffff82111561160a57600080fd5b601f19601f8301169050602081019050919050565b600067ffffffffffffffff82111561163657600080fd5b601f19601f8301169050602081019050919050565b600081519050919050565b600081519050919050565b600082825260208201905092915050565b600082825260208201905092915050565b600081905092915050565b6000819050919050565b82818337600083830152505050565b60005b838110156116c55780820151818401526020810190506116aa565b838111156116d4576000848401525b50505050565b6000601f19601f8301169050919050565b6116f48161168e565b81146116ff57600080fd5b5056fea365627a7a723158204b0bb533db9d1b45bf50843b350afe91306e85d1718baa0a8571763f1cc490cf6c6578706572696d656e74616cf564736f6c63430005100040",
  "source": "// SPDX-License-Identifier: MIT\r\npragma solidity >=0.4.21;\r\npragma experimental ABIEncoderV2;\r\nimport './Operations.sol';\r\n\r\ncontract SellingContract is Operations{\r\n\r\n    struct OldProductStruct {\r\n      string productname;\r\n      string productID;\r\n      string Ptype;\r\n      string details;\r\n      string sellingPrice;\r\n      string productImg;\r\n      string collectionCenter;\r\n      uint256 uploaddate;\r\n    }\r\n\r\n    mapping (string => string[]) public userProductMap;\r\n    mapping (string => OldProductStruct) public ProductDetailsMap;\r\n\r\n    uint Productcount;\r\n\r\n    constructor() public {\r\n        Productcount=0;\r\n    }\r\n\r\n    function addProduct(string memory name, string memory ProdType, string memory details, \r\n                                            string memory price, string memory productImg, string memory userID, uint256 date) public \r\n    {\r\n        Productcount++;\r\n        //Convert int to string \r\n        string memory H=\"P\";\r\n        string memory ProdID=concatenate(H,IntToString(Productcount));\r\n\r\n        string memory CC = \"NA\";\r\n\r\n        userProductMap[userID].push(ProdID);\r\n        //ProductDetailsMap[ProdID]=OldProductStruct(name,ProdID,ProdType,details,price,productImg,CC,date);\r\n    }\r\n\r\n    function setCompanyCenter(string memory CompanyID,string memory ProdID) public\r\n    {\r\n        ProductDetailsMap[ProdID].collectionCenter=CompanyID;\r\n    }\r\n\r\n    function getProduct(string memory ProductID) public view returns (OldProductStruct memory _OldProductStruct) {\r\n        return ProductDetailsMap[ProductID];\r\n    }\r\n\r\n}",
  "sourcePath": "D:\\Projects\\Blockchain\\TARP Project\\E-Waste Manager\\contracts\\SellingContract.sol",
  "compiler": {
    "name": "solc",
    "version": "0.5.16+commit.9c3226ce.Emscripten.clang"
  },
  "schemaVersion": "3.4.4",
  "updatedAt": "2022-04-13T09:21:16.455Z",
  "networkType": "ethereum",
  "devdoc": {
    "methods": {}
  },
  "userdoc": {
    "methods": {}
  }
}